{
  "contractName": "Compete",
  "abi": [
    {
      "constant": true,
      "inputs": [
        {
          "name": "",
          "type": "uint256"
        }
      ],
      "name": "participants",
      "outputs": [
        {
          "name": "id",
          "type": "uint256"
        },
        {
          "name": "name",
          "type": "string"
        },
        {
          "name": "stepsCurrent",
          "type": "uint256"
        },
        {
          "name": "stepsGoal",
          "type": "uint256"
        },
        {
          "name": "_address",
          "type": "address"
        },
        {
          "name": "stake",
          "type": "uint256"
        },
        {
          "name": "withdrawn",
          "type": "bool"
        }
      ],
      "payable": false,
      "stateMutability": "view",
      "type": "function"
    },
    {
      "constant": true,
      "inputs": [],
      "name": "nextId",
      "outputs": [
        {
          "name": "",
          "type": "uint256"
        }
      ],
      "payable": false,
      "stateMutability": "view",
      "type": "function"
    },
    {
      "inputs": [],
      "payable": false,
      "stateMutability": "nonpayable",
      "type": "constructor"
    },
    {
      "constant": true,
      "inputs": [],
      "name": "getTimeRemaining",
      "outputs": [
        {
          "name": "",
          "type": "uint256"
        }
      ],
      "payable": false,
      "stateMutability": "view",
      "type": "function"
    },
    {
      "constant": false,
      "inputs": [
        {
          "name": "name",
          "type": "string"
        },
        {
          "name": "stepsCurrent",
          "type": "uint256"
        },
        {
          "name": "stepsGoal",
          "type": "uint256"
        }
      ],
      "name": "participate",
      "outputs": [],
      "payable": true,
      "stateMutability": "payable",
      "type": "function"
    },
    {
      "constant": false,
      "inputs": [],
      "name": "pay",
      "outputs": [
        {
          "name": "",
          "type": "bool"
        }
      ],
      "payable": true,
      "stateMutability": "payable",
      "type": "function"
    },
    {
      "constant": true,
      "inputs": [
        {
          "name": "_address",
          "type": "address"
        }
      ],
      "name": "info",
      "outputs": [
        {
          "name": "",
          "type": "uint256"
        },
        {
          "name": "",
          "type": "string"
        },
        {
          "name": "",
          "type": "uint256"
        },
        {
          "name": "",
          "type": "uint256"
        },
        {
          "name": "",
          "type": "address"
        },
        {
          "name": "",
          "type": "uint256"
        },
        {
          "name": "",
          "type": "bool"
        }
      ],
      "payable": false,
      "stateMutability": "view",
      "type": "function"
    },
    {
      "constant": true,
      "inputs": [
        {
          "name": "id",
          "type": "uint256"
        }
      ],
      "name": "infoByID",
      "outputs": [
        {
          "name": "",
          "type": "uint256"
        },
        {
          "name": "",
          "type": "string"
        },
        {
          "name": "",
          "type": "uint256"
        },
        {
          "name": "",
          "type": "uint256"
        },
        {
          "name": "",
          "type": "address"
        },
        {
          "name": "",
          "type": "uint256"
        }
      ],
      "payable": false,
      "stateMutability": "view",
      "type": "function"
    },
    {
      "constant": false,
      "inputs": [
        {
          "name": "stepsAdd",
          "type": "uint256"
        }
      ],
      "name": "update",
      "outputs": [],
      "payable": false,
      "stateMutability": "nonpayable",
      "type": "function"
    },
    {
      "constant": false,
      "inputs": [
        {
          "name": "completed",
          "type": "bool"
        }
      ],
      "name": "withdraw",
      "outputs": [],
      "payable": false,
      "stateMutability": "nonpayable",
      "type": "function"
    },
    {
      "constant": false,
      "inputs": [],
      "name": "getWinnersStake",
      "outputs": [],
      "payable": false,
      "stateMutability": "nonpayable",
      "type": "function"
    }
  ],
  "bytecode": "0x60806040526001805534801561001457600080fd5b50600062093a8042019050506113068061002f6000396000f3fe6080604052600436106100915760003560e01c806361b8ce8c1161005957806361b8ce8c146103d057806382ab890a146103fb578063a810a54c14610436578063dac6270d14610473578063efcb32881461049e57610091565b80630a5943d6146100965780630aae7a6b146101655780631b9265b8146102895780631dff90ec146102ab57806335c1d349146102c2575b600080fd5b610163600480360360608110156100ac57600080fd5b81019080803590602001906401000000008111156100c957600080fd5b8201836020820111156100db57600080fd5b803590602001918460018302840111640100000000831117156100fd57600080fd5b91908080601f016020809104026020016040519081016040528093929190818152602001838380828437600081840152601f19601f82011690508083019250505050505050919291929080359060200190929190803590602001909291905050506105a1565b005b34801561017157600080fd5b506101b46004803603602081101561018857600080fd5b81019080803573ffffffffffffffffffffffffffffffffffffffff1690602001909291905050506107ba565b60405180888152602001806020018781526020018681526020018573ffffffffffffffffffffffffffffffffffffffff1673ffffffffffffffffffffffffffffffffffffffff16815260200184815260200183151515158152602001828103825288818151815260200191508051906020019080838360005b8381101561024857808201518184015260208101905061022d565b50505050905090810190601f1680156102755780820380516001836020036101000a031916815260200191505b509850505050505050505060405180910390f35b6102916109b4565b604051808215151515815260200191505060405180910390f35b3480156102b757600080fd5b506102c0610a0c565b005b3480156102ce57600080fd5b506102fb600480360360208110156102e557600080fd5b8101908080359060200190929190505050610aa1565b60405180888152602001806020018781526020018681526020018573ffffffffffffffffffffffffffffffffffffffff1673ffffffffffffffffffffffffffffffffffffffff16815260200184815260200183151515158152602001828103825288818151815260200191508051906020019080838360005b8381101561038f578082015181840152602081019050610374565b50505050905090810190601f1680156103bc5780820380516001836020036101000a031916815260200191505b509850505050505050505060405180910390f35b3480156103dc57600080fd5b506103e5610bb5565b6040518082815260200191505060405180910390f35b34801561040757600080fd5b506104346004803603602081101561041e57600080fd5b8101908080359060200190929190505050610bbb565b005b34801561044257600080fd5b506104716004803603602081101561045957600080fd5b81019080803515159060200190929190505050610c46565b005b34801561047f57600080fd5b50610488610e27565b6040518082815260200191505060405180910390f35b3480156104aa57600080fd5b506104d7600480360360208110156104c157600080fd5b8101908080359060200190929190505050610e33565b60405180878152602001806020018681526020018581526020018473ffffffffffffffffffffffffffffffffffffffff1673ffffffffffffffffffffffffffffffffffffffff168152602001838152602001828103825287818151815260200191508051906020019080838360005b83811015610561578082015181840152602081019050610546565b50505050905090810190601f16801561058e5780820380516001836020036101000a031916815260200191505b5097505050505050505060405180910390f35b60006105ac33610ff0565b9050600081146106765783600060018303815481106105c757fe5b906000526020600020906007020160010190805190602001906105eb929190611160565b5082600060018303815481106105fd57fe5b906000526020600020906007020160020181905550816000600183038154811061062357fe5b906000526020600020906007020160030181905550600080600183038154811061064957fe5b906000526020600020906007020160060160006101000a81548160ff0219169083151502179055506107b4565b60006040518060e0016040528060015481526020018681526020018581526020018481526020013373ffffffffffffffffffffffffffffffffffffffff1681526020016000815260200160001515815250908060018154018082558091505090600182039060005260206000209060070201600090919290919091506000820151816000015560208201518160010190805190602001906107189291906111e0565b50604082015181600201556060820151816003015560808201518160040160006101000a81548173ffffffffffffffffffffffffffffffffffffffff021916908373ffffffffffffffffffffffffffffffffffffffff16021790555060a0820151816005015560c08201518160060160006101000a81548160ff0219169083151502179055505050506001600081548092919060010191905055505b50505050565b600060606000806000806000806107d089610ff0565b9050600081146109a757600060018203815481106107ea57fe5b9060005260206000209060070201600001546000600183038154811061080c57fe5b90600052602060002090600702016001016000600184038154811061082d57fe5b9060005260206000209060070201600201546000600185038154811061084f57fe5b9060005260206000209060070201600301546000600186038154811061087157fe5b906000526020600020906007020160040160009054906101000a900473ffffffffffffffffffffffffffffffffffffffff16600060018703815481106108b357fe5b906000526020600020906007020160050154600060018803815481106108d557fe5b906000526020600020906007020160060160009054906101000a900460ff16858054600181600116156101000203166002900480601f0160208091040260200160405190810160405280929190818152602001828054600181600116156101000203166002900480156109895780601f1061095e57610100808354040283529160200191610989565b820191906000526020600020905b81548152906001019060200180831161096c57829003601f168201915b505050505095508292509750975097509750975097509750506109a9565b505b919395979092949650565b6000806109c033610ff0565b905060008114610a035734600060018303815481106109db57fe5b9060005260206000209060070201600501600082825401925050819055506001915050610a09565b60009150505b90565b60008090505b600080549050811015610a9e5760008181548110610a2c57fe5b90600052602060002090600702016003015460008281548110610a4b57fe5b90600052602060002090600702016002015410610a915760008181548110610a6f57fe5b9060005260206000209060070201600501546003600082825401925050819055505b8080600101915050610a12565b50565b60008181548110610aae57fe5b9060005260206000209060070201600091509050806000015490806001018054600181600116156101000203166002900480601f016020809104026020016040519081016040528092919081815260200182805460018160011615610100020316600290048015610b605780601f10610b3557610100808354040283529160200191610b60565b820191906000526020600020905b815481529060010190602001808311610b4357829003601f168201915b5050505050908060020154908060030154908060040160009054906101000a900473ffffffffffffffffffffffffffffffffffffffff16908060050154908060060160009054906101000a900460ff16905087565b60015481565b60008110610c43576000610bce33610ff0565b905060008114610c41578160006001830381548110610be957fe5b9060005260206000209060070201600201600082825401925050819055506000806001830381548110610c1857fe5b906000526020600020906007020160060160006101000a81548160ff0219169083151502179055505b505b50565b6000610c5133610ff0565b905060003073ffffffffffffffffffffffffffffffffffffffff1631905060008214158015610c895750426002541080610c885750825b5b15610e225760006001830381548110610c9e57fe5b90600052602060002090600702016003015460006001840381548110610cc057fe5b90600052602060002090600702016002015410158015610d1257506000151560006001840381548110610cef57fe5b906000526020600020906007020160060160009054906101000a900460ff161515145b15610e215760006001830381548110610d2757fe5b906000526020600020906007020160040160009054906101000a900473ffffffffffffffffffffffffffffffffffffffff1673ffffffffffffffffffffffffffffffffffffffff166108fc60006001850381548110610d8257fe5b9060005260206000209060070201600501549081150290604051600060405180830381858888f19350505050158015610dbf573d6000803e3d6000fd5b50600160006001840381548110610dd257fe5b906000526020600020906007020160060160006101000a81548160ff0219169083151502179055506000806001840381548110610e0b57fe5b9060005260206000209060070201600501819055505b5b505050565b60004260025403905090565b600060606000806000806000610e488861109b565b9050610e52611260565b60008281548110610e5f57fe5b90600052602060002090600702016040518060e001604052908160008201548152602001600182018054600181600116156101000203166002900480601f016020809104026020016040519081016040528092919081815260200182805460018160011615610100020316600290048015610f1b5780601f10610ef057610100808354040283529160200191610f1b565b820191906000526020600020905b815481529060010190602001808311610efe57829003601f168201915b5050505050815260200160028201548152602001600382015481526020016004820160009054906101000a900473ffffffffffffffffffffffffffffffffffffffff1673ffffffffffffffffffffffffffffffffffffffff1673ffffffffffffffffffffffffffffffffffffffff168152602001600582015481526020016006820160009054906101000a900460ff1615151515815250509050806000015181602001518260400151836060015184608001518560a00151849450819150975097509750975097509750505091939550919395565b600080600090505b600080549050811015611090578273ffffffffffffffffffffffffffffffffffffffff166000828154811061102957fe5b906000526020600020906007020160040160009054906101000a900473ffffffffffffffffffffffffffffffffffffffff1673ffffffffffffffffffffffffffffffffffffffff1614156110835760018101915050611096565b8080600101915050610ff8565b50600090505b919050565b600080600090505b6000805490508110156110ec5782600082815481106110be57fe5b90600052602060002090600702016000015414156110df578091505061115b565b80806001019150506110a3565b506040517f08c379a00000000000000000000000000000000000000000000000000000000081526004018080602001828103825260158152602001807f5061727469636970616e74206e6f7420666f756e64000000000000000000000081525060200191505060405180910390fd5b919050565b828054600181600116156101000203166002900490600052602060002090601f016020900481019282601f106111a157805160ff19168380011785556111cf565b828001600101855582156111cf579182015b828111156111ce5782518255916020019190600101906111b3565b5b5090506111dc91906112b5565b5090565b828054600181600116156101000203166002900490600052602060002090601f016020900481019282601f1061122157805160ff191683800117855561124f565b8280016001018555821561124f579182015b8281111561124e578251825591602001919060010190611233565b5b50905061125c91906112b5565b5090565b6040518060e0016040528060008152602001606081526020016000815260200160008152602001600073ffffffffffffffffffffffffffffffffffffffff168152602001600081526020016000151581525090565b6112d791905b808211156112d35760008160009055506001016112bb565b5090565b9056fea165627a7a723058205b7a3e5194100f90c661e0ddd5d601cf1c72a9d07652bb41b8bf8ab12fbed8810029",
  "source": "pragma solidity ^0.5.0;\n\ncontract Compete {\n\n  Participant[] public participants;\n  uint public nextId = 1;\n  uint256 endTime;\n  uint winnerStake;\n\n  struct Participant {\n    uint id;\n    string name;\n    uint stepsCurrent;\n    uint stepsGoal;\n    address payable _address;\n    uint stake;\n    bool withdrawn;\n  }\n\n  constructor () public {\n    uint256 endTime = block.timestamp + 7 days;\n  }\n\n  function getTimeRemaining() view public returns(uint256) {\n    return(endTime - block.timestamp);\n  }\n\n  function participate(string memory name, uint stepsCurrent, uint stepsGoal) payable public {\n    uint i = findByAddress(msg.sender);\n    if (i != 0) {\n      participants[i - 1].name = name;\n      participants[i - 1].stepsCurrent = stepsCurrent;\n      participants[i - 1].stepsGoal = stepsGoal;\n      participants[i - 1].withdrawn = false;\n    } else {\n      participants.push(Participant(nextId, name, stepsCurrent, stepsGoal, msg.sender, 0, false));\n      nextId++;\n    }\n  }\n\n  function pay() external payable returns(bool) {\n    uint i = findByAddress(msg.sender);\n    if (i != 0) {\n      participants[i - 1].stake += msg.value;\n      return true;\n    }\n    return false;\n  }\n\n  function info(address _address) view public returns(uint, string memory, uint, uint, address, uint, bool) {\n    uint i = findByAddress(_address);\n    if (i != 0) {\n      return(participants[i - 1].id, participants[i - 1].name, participants[i - 1].stepsCurrent, participants[i - 1].stepsGoal, participants[i - 1]._address, participants[i - 1].stake, participants[i - 1].withdrawn);\n    }\n  }\n\n  function infoByID(uint id) view public returns(uint, string memory, uint, uint, address, uint) {\n    uint i = findByID(id);\n    Participant memory cParticipant = participants[i];\n    return(cParticipant.id, cParticipant.name, cParticipant.stepsCurrent, cParticipant.stepsGoal, cParticipant._address, cParticipant.stake);\n  }\n\n  function update(uint stepsAdd) public {\n    if(stepsAdd >= 0) {\n      uint i = findByAddress(msg.sender);\n      if (i != 0) {\n        participants[i - 1].stepsCurrent += stepsAdd;\n        participants[i - 1].withdrawn = false;\n      }\n    }\n  }\n\n  function withdraw(bool completed) public {\n    uint i = findByAddress(msg.sender);\n    uint balance = address(this).balance;\n\n    // Complete = true and withdraw full own stake for dev, instead of proportion of stake\n    if (i != 0 && (endTime < block.timestamp || completed)) {\n      if (participants[i - 1].stepsCurrent >= participants[i - 1].stepsGoal && participants[i - 1].withdrawn == false) {\n        participants[i - 1]._address.transfer(participants[i - 1].stake);\n        participants[i - 1].withdrawn = true;\n        participants[i - 1].stake = 0;\n      }\n    }\n  }\n\n  function getWinnersStake() public {\n    for(uint j = 0; j < participants.length; j++) {\n      if (participants[j].stepsCurrent >= participants[j].stepsGoal) {\n        winnerStake += participants[j].stake;\n      }\n    }\n  }\n\n  function findByID(uint id) view internal returns(uint) {\n    for(uint i = 0; i < participants.length; i++) {\n      if(participants[i].id == id) {\n        return i;\n      }\n    }\n    revert('Participant not found');\n  }\n\n  function findByAddress(address _address) view internal returns(uint) {\n    for(uint i = 0; i < participants.length; i++) {\n      if(participants[i]._address == _address) {\n        return i + 1;\n      }\n    }\n    return 0;\n  }\n\n}\n",
  "sourcePath": "/Users/kai/Downloads/steps-dapp/contracts/Compete.sol",
  "compiler": {
    "name": "solc",
    "version": "0.5.8+commit.23d335f2.Emscripten.clang"
  },
  "schemaVersion": "3.0.17",
  "updatedAt": "2019-11-05T17:53:58.294Z",
  "networkType": "ethereum",
  "devdoc": {
    "methods": {}
  },
  "userdoc": {
    "methods": {}
  }
}